{
  "contractName": "DAppStore",
  "abi": [
    {
      "constant": true,
      "inputs": [
        {
          "name": "",
          "type": "uint256"
        }
      ],
      "name": "dapps",
      "outputs": [
        {
          "name": "developer",
          "type": "address"
        },
        {
          "name": "id",
          "type": "bytes32"
        },
        {
          "name": "balance",
          "type": "uint256"
        },
        {
          "name": "rate",
          "type": "uint256"
        },
        {
          "name": "available",
          "type": "uint256"
        },
        {
          "name": "v_minted",
          "type": "uint256"
        },
        {
          "name": "v_cast",
          "type": "uint256"
        },
        {
          "name": "e_balance",
          "type": "uint256"
        }
      ],
      "payable": false,
      "stateMutability": "view",
      "type": "function"
    },
    {
      "constant": true,
      "inputs": [
        {
          "name": "",
          "type": "bytes32"
        }
      ],
      "name": "id2index",
      "outputs": [
        {
          "name": "",
          "type": "uint256"
        }
      ],
      "payable": false,
      "stateMutability": "view",
      "type": "function"
    },
    {
      "inputs": [
        {
          "name": "_SNT",
          "type": "address"
        }
      ],
      "payable": false,
      "stateMutability": "nonpayable",
      "type": "constructor"
    },
    {
      "anonymous": false,
      "inputs": [
        {
          "indexed": false,
          "name": "id",
          "type": "bytes32"
        },
        {
          "indexed": false,
          "name": "amount",
          "type": "uint256"
        }
      ],
      "name": "DAppCreated",
      "type": "event"
    },
    {
      "anonymous": false,
      "inputs": [
        {
          "indexed": false,
          "name": "id",
          "type": "bytes32"
        },
        {
          "indexed": false,
          "name": "amount",
          "type": "uint256"
        },
        {
          "indexed": false,
          "name": "newEffectiveBalance",
          "type": "uint256"
        }
      ],
      "name": "Upvote",
      "type": "event"
    },
    {
      "anonymous": false,
      "inputs": [
        {
          "indexed": false,
          "name": "id",
          "type": "bytes32"
        },
        {
          "indexed": false,
          "name": "cost",
          "type": "uint256"
        },
        {
          "indexed": false,
          "name": "newEffectiveBalance",
          "type": "uint256"
        }
      ],
      "name": "Downvote",
      "type": "event"
    },
    {
      "anonymous": false,
      "inputs": [
        {
          "indexed": false,
          "name": "id",
          "type": "bytes32"
        },
        {
          "indexed": false,
          "name": "amount",
          "type": "uint256"
        },
        {
          "indexed": false,
          "name": "newEffectiveBalance",
          "type": "uint256"
        }
      ],
      "name": "Withdraw",
      "type": "event"
    },
    {
      "constant": false,
      "inputs": [
        {
          "name": "_id",
          "type": "bytes32"
        },
        {
          "name": "_amount",
          "type": "uint256"
        }
      ],
      "name": "createDApp",
      "outputs": [],
      "payable": false,
      "stateMutability": "nonpayable",
      "type": "function"
    },
    {
      "constant": true,
      "inputs": [
        {
          "name": "_id",
          "type": "bytes32"
        },
        {
          "name": "_amount",
          "type": "uint256"
        }
      ],
      "name": "upvoteEffect",
      "outputs": [
        {
          "name": "effect",
          "type": "uint256"
        }
      ],
      "payable": false,
      "stateMutability": "view",
      "type": "function"
    },
    {
      "constant": false,
      "inputs": [
        {
          "name": "_id",
          "type": "bytes32"
        },
        {
          "name": "_amount",
          "type": "uint256"
        }
      ],
      "name": "upvote",
      "outputs": [],
      "payable": false,
      "stateMutability": "nonpayable",
      "type": "function"
    },
    {
      "constant": true,
      "inputs": [
        {
          "name": "_id",
          "type": "bytes32"
        },
        {
          "name": "_percent_down",
          "type": "uint256"
        }
      ],
      "name": "downvoteCost",
      "outputs": [
        {
          "name": "b",
          "type": "uint256"
        },
        {
          "name": "v_r",
          "type": "uint256"
        },
        {
          "name": "c",
          "type": "uint256"
        }
      ],
      "payable": false,
      "stateMutability": "view",
      "type": "function"
    },
    {
      "constant": false,
      "inputs": [
        {
          "name": "_id",
          "type": "bytes32"
        },
        {
          "name": "_percent_down",
          "type": "uint256"
        }
      ],
      "name": "downvote",
      "outputs": [],
      "payable": false,
      "stateMutability": "nonpayable",
      "type": "function"
    },
    {
      "constant": false,
      "inputs": [
        {
          "name": "_id",
          "type": "bytes32"
        },
        {
          "name": "_amount",
          "type": "uint256"
        }
      ],
      "name": "withdraw",
      "outputs": [],
      "payable": false,
      "stateMutability": "nonpayable",
      "type": "function"
    },
    {
      "constant": false,
      "inputs": [
        {
          "name": "_from",
          "type": "address"
        },
        {
          "name": "_amount",
          "type": "uint256"
        },
        {
          "name": "_token",
          "type": "address"
        },
        {
          "name": "_data",
          "type": "bytes"
        }
      ],
      "name": "receiveApproval",
      "outputs": [],
      "payable": false,
      "stateMutability": "nonpayable",
      "type": "function"
    }
  ],
  "bytecode": "0x608060405234801561001057600080fd5b506040516020806125e383398101806040528101908080519060200190929190505050806000806101000a81548173ffffffffffffffffffffffffffffffffffffffff021916908373ffffffffffffffffffffffffffffffffffffffff16021790555063cedb614c60018190555060286002819055506127106002546001540281151561009957fe5b0460038190555050612533806100b06000396000f300608060405260043610610099576000357c0100000000000000000000000000000000000000000000000000000000900463ffffffff168063040cf0201461009e5780631248edd1146100d9578063163ddaf1146101285780631a214f43146101855780632b3df690146101c05780638f4ffcb1146101fb5780639640fe35146102ae578063ac56f70f14610354578063ac76909014610399575b600080fd5b3480156100aa57600080fd5b506100d76004803603810190808035600019169060200190929190803590602001909291905050506103d4565b005b3480156100e557600080fd5b506101126004803603810190808035600019169060200190929190803590602001909291905050506108a7565b6040518082815260200191505060405180910390f35b34801561013457600080fd5b50610161600480360381019080803560001916906020019092919080359060200190929190505050610a87565b60405180848152602001838152602001828152602001935050505060405180910390f35b34801561019157600080fd5b506101be600480360381019080803560001916906020019092919080359060200190929190505050610c8b565b005b3480156101cc57600080fd5b506101f9600480360381019080803560001916906020019092919080359060200190929190505050610c9a565b005b34801561020757600080fd5b506102ac600480360381019080803573ffffffffffffffffffffffffffffffffffffffff16906020019092919080359060200190929190803573ffffffffffffffffffffffffffffffffffffffff169060200190929190803590602001908201803590602001908080601f0160208091040260200160405190810160405280939291908181526020018383808284378201915050505050509192919290505050610ca9565b005b3480156102ba57600080fd5b506102d9600480360381019080803590602001909291905050506110ff565b604051808973ffffffffffffffffffffffffffffffffffffffff1673ffffffffffffffffffffffffffffffffffffffff16815260200188600019166000191681526020018781526020018681526020018581526020018481526020018381526020018281526020019850505050505050505060405180910390f35b34801561036057600080fd5b506103836004803603810190808035600019169060200190929190505050611176565b6040518082815260200191505060405180910390f35b3480156103a557600080fd5b506103d260048036038101908080356000191690602001909291908035906020019092919050505061118e565b005b60008060056000856000191660001916815260200190815260200160002054915060048281548110151561040457fe5b906000526020600020906008020190508360001916816001015460001916141515610497576040517f08c379a000000000000000000000000000000000000000000000000000000000815260040180806020018281038252601b8152602001807f4572726f72206665746368696e6720636f72726563742064617461000000000081525060200191505060405180910390fd5b8060000160009054906101000a900473ffffffffffffffffffffffffffffffffffffffff1673ffffffffffffffffffffffffffffffffffffffff163373ffffffffffffffffffffffffffffffffffffffff16141515610584576040517f08c379a00000000000000000000000000000000000000000000000000000000081526004018080602001828103825260378152602001807f4f6e6c792074686520646576656c6f7065722063616e2077697468647261772081526020017f534e54207374616b6564206f6e2074686973206461746100000000000000000081525060400191505060405180910390fd5b8060040154831115151561064c576040517f08c379a00000000000000000000000000000000000000000000000000000000081526004018080602001828103825260598152602001807f596f752063616e206f6e6c7920776974686472617720612070657263656e746181526020017f6765206f662074686520534e54207374616b65642c206c65737320776861742081526020017f796f75206861766520616c72656164792072656365697665640000000000000081525060600191505060405180910390fd5b828160020154038160020181905550600354816002015481151561066c57fe5b046001038160030181905550806003015481600201540281600401819055508060030154600181151561069b57fe5b0481600401540a81600501819055508060050154816006015411156106c857806005015481600601819055505b806005015481600401548115156106db57fe5b0481600301548260060154020281600201540381600701819055506000809054906101000a900473ffffffffffffffffffffffffffffffffffffffff1673ffffffffffffffffffffffffffffffffffffffff166323b872dd308360000160009054906101000a900473ffffffffffffffffffffffffffffffffffffffff16866040518463ffffffff167c0100000000000000000000000000000000000000000000000000000000028152600401808473ffffffffffffffffffffffffffffffffffffffff1673ffffffffffffffffffffffffffffffffffffffff1681526020018373ffffffffffffffffffffffffffffffffffffffff1673ffffffffffffffffffffffffffffffffffffffff1681526020018281526020019350505050602060405180830381600087803b15801561081257600080fd5b505af1158015610826573d6000803e3d6000fd5b505050506040513d602081101561083c57600080fd5b8101908080519060200190929190505050507fcaa03f03cdee1c04d0a939a3664af76dafeb30903f32620a78e7c7cafa15202b84848360070154604051808460001916600019168152602001838152602001828152602001935050505060405180910390a150505050565b6000806108b26123f8565b6000806000806000600560008b600019166000191681526020019081526020016000205496506004878154811015156108e757fe5b906000526020600020906008020161010060405190810160405290816000820160009054906101000a900473ffffffffffffffffffffffffffffffffffffffff1673ffffffffffffffffffffffffffffffffffffffff1673ffffffffffffffffffffffffffffffffffffffff168152602001600182015460001916600019168152602001600282015481526020016003820154815260200160048201548152602001600582015481526020016006820154815260200160078201548152505095508960001916866020015160001916141515610a2b576040517f08c379a000000000000000000000000000000000000000000000000000000000815260040180806020018281038252601b8152602001807f4572726f72206665746368696e6720636f72726563742064617461000000000081525060200191505060405180910390fd5b88866040015101945060035485811515610a4157fe5b0460010393508385029250836001811515610a5857fe5b04830a91508183811515610a6857fe5b0484830202850390508560e00151810397505050505050505092915050565b600080600080610a956123f8565b6000806000600560008b60001916600019168152602001908152602001600020549450600485815481101515610ac757fe5b906000526020600020906008020161010060405190810160405290816000820160009054906101000a900473ffffffffffffffffffffffffffffffffffffffff1673ffffffffffffffffffffffffffffffffffffffff1673ffffffffffffffffffffffffffffffffffffffff168152602001600182015460001916600019168152602001600282015481526020016003820154815260200160048201548152602001600582015481526020016006820154815260200160078201548152505093508960001916846020015160001916141515610c0b576040517f08c379a000000000000000000000000000000000000000000000000000000000815260040180806020018281038252601b8152602001807f4572726f72206665746368696e6720636f72726563742064617461000000000081525060200191505060405180910390fd5b60648460e001518a02811515610c1d57fe5b049250836080015184606001518560a00151850202811515610c3b57fe5b0491506127108983811515610c4c57fe5b04811515610c5657fe5b04828560c00151018560a00151038560800151811515610c7257fe5b0402905082828297509750975050505050509250925092565b610c9633838361119d565b5050565b610ca53383836117da565b5050565b60008060008060009054906101000a900473ffffffffffffffffffffffffffffffffffffffff1673ffffffffffffffffffffffffffffffffffffffff168573ffffffffffffffffffffffffffffffffffffffff16141515610d72576040517f08c379a000000000000000000000000000000000000000000000000000000000815260040180806020018281038252600b8152602001807f57726f6e6720746f6b656e00000000000000000000000000000000000000000081525060200191505060405180910390fd5b3373ffffffffffffffffffffffffffffffffffffffff168573ffffffffffffffffffffffffffffffffffffffff16141515610e15576040517f08c379a000000000000000000000000000000000000000000000000000000000815260040180806020018281038252600d8152602001807f57726f6e67206163636f756e740000000000000000000000000000000000000081525060200191505060405180910390fd5b6084845111151515610e8f576040517f08c379a000000000000000000000000000000000000000000000000000000000815260040180806020018281038252600e8152602001807f496e636f7272656374206461746100000000000000000000000000000000000081525060200191505060405180910390fd5b610e9884611e0f565b8093508194508295505050508086141515610f1b576040517f08c379a000000000000000000000000000000000000000000000000000000000815260040180806020018281038252600c8152602001807f57726f6e6720616d6f756e74000000000000000000000000000000000000000081525060200191505060405180910390fd5b631a214f437c0100000000000000000000000000000000000000000000000000000000027bffffffffffffffffffffffffffffffffffffffffffffffffffffffff1916837bffffffffffffffffffffffffffffffffffffffffffffffffffffffff19161415610f9457610f8f87838361119d565b6110f6565b63ac7690907c0100000000000000000000000000000000000000000000000000000000027bffffffffffffffffffffffffffffffffffffffffffffffffffffffff1916837bffffffffffffffffffffffffffffffffffffffffffffffffffffffff1916141561100d57611008878383611e32565b6110f5565b632b3df6907c0100000000000000000000000000000000000000000000000000000000027bffffffffffffffffffffffffffffffffffffffffffffffffffffffff1916837bffffffffffffffffffffffffffffffffffffffffffffffffffffffff19161415611086576110818783836117da565b6110f4565b6040517f08c379a00000000000000000000000000000000000000000000000000000000081526004018080602001828103825260158152602001807f57726f6e67206d6574686f642073656c6563746f72000000000000000000000081525060200191505060405180910390fd5b5b5b50505050505050565b60048181548110151561110e57fe5b90600052602060002090600802016000915090508060000160009054906101000a900473ffffffffffffffffffffffffffffffffffffffff16908060010154908060020154908060030154908060040154908060050154908060060154908060070154905088565b60056020528060005260406000206000915090505481565b611199338383611e32565b5050565b600080600083111515611264576040517f08c379a00000000000000000000000000000000000000000000000000000000081526004018080602001828103825260428152602001807f596f75206d757374207370656e6420736f6d6520534e5420746f207375626d6981526020017f7420612072616e6b696e6720696e206f7264657220746f2061766f696420737081526020017f616d00000000000000000000000000000000000000000000000000000000000081525060600191505060405180910390fd5b60035483101515611303576040517f08c379a00000000000000000000000000000000000000000000000000000000081526004018080602001828103825260338152602001807f596f752063616e6e6f74207374616b65206d6f726520534e54207468616e207481526020017f6865206365696c696e672064696374617465730000000000000000000000000081525060400191505060405180910390fd5b826000809054906101000a900473ffffffffffffffffffffffffffffffffffffffff1673ffffffffffffffffffffffffffffffffffffffff1663dd62ed3e87306040518363ffffffff167c0100000000000000000000000000000000000000000000000000000000028152600401808373ffffffffffffffffffffffffffffffffffffffff1673ffffffffffffffffffffffffffffffffffffffff1681526020018273ffffffffffffffffffffffffffffffffffffffff1673ffffffffffffffffffffffffffffffffffffffff16815260200192505050602060405180830381600087803b1580156113f457600080fd5b505af1158015611408573d6000803e3d6000fd5b505050506040513d602081101561141e57600080fd5b8101908080519060200190929190505050101515156114a5576040517f08c379a00000000000000000000000000000000000000000000000000000000081526004018080602001828103825260188152602001807f4e6f7420656e6f75676820534e5420616c6c6f77616e6365000000000000000081525060200191505060405180910390fd5b6000809054906101000a900473ffffffffffffffffffffffffffffffffffffffff1673ffffffffffffffffffffffffffffffffffffffff166323b872dd8630866040518463ffffffff167c0100000000000000000000000000000000000000000000000000000000028152600401808473ffffffffffffffffffffffffffffffffffffffff1673ffffffffffffffffffffffffffffffffffffffff1681526020018373ffffffffffffffffffffffffffffffffffffffff1673ffffffffffffffffffffffffffffffffffffffff1681526020018281526020019350505050602060405180830381600087803b15801561159d57600080fd5b505af11580156115b1573d6000803e3d6000fd5b505050506040513d60208110156115c757600080fd5b8101908080519060200190929190505050151561164c576040517f08c379a000000000000000000000000000000000000000000000000000000000815260040180806020018281038252600f8152602001807f5472616e73666572206661696c6564000000000000000000000000000000000081525060200191505060405180910390fd5b6004805490509150600480548091906001016116689190612457565b5060048281548110151561167857fe5b90600052602060002090600802019050338160000160006101000a81548173ffffffffffffffffffffffffffffffffffffffff021916908373ffffffffffffffffffffffffffffffffffffffff1602179055508381600101816000191690555082816002018190555060035481600201548115156116f257fe5b046001038160030181905550806003015481600201540281600401819055508060030154600181151561172157fe5b0481600401540a8160050181905550600081600601819055508060050154816004015481151561174d57fe5b04816003015482600601540202816002015403816007018190555081600560008660001916600019168152602001908152602001600020819055507f868bbbb32f410f6626146ffc2d5c58cfdb3f08798ea4965f55c2b7d30a6f9c6c8482600701546040518083600019166000191681526020018281526020019250505060405180910390a15050505050565b60008060008311151561187b576040517f08c379a00000000000000000000000000000000000000000000000000000000081526004018080602001828103825260298152602001807f596f75206d7573742073656e6420736f6d6520534e5420696e206f726465722081526020017f746f207570766f7465000000000000000000000000000000000000000000000081525060400191505060405180910390fd5b6005600085600019166000191681526020019081526020016000205491506004828154811015156118a857fe5b90600052602060002090600802019050836000191681600101546000191614151561193b576040517f08c379a000000000000000000000000000000000000000000000000000000000815260040180806020018281038252601b8152602001807f4572726f72206665746368696e6720636f72726563742064617461000000000081525060200191505060405180910390fd5b600354838260020154011015156119e0576040517f08c379a00000000000000000000000000000000000000000000000000000000081526004018080602001828103825260338152602001807f596f752063616e6e6f74207374616b65206d6f726520534e54207468616e207481526020017f6865206365696c696e672064696374617465730000000000000000000000000081525060400191505060405180910390fd5b826000809054906101000a900473ffffffffffffffffffffffffffffffffffffffff1673ffffffffffffffffffffffffffffffffffffffff1663dd62ed3e87306040518363ffffffff167c0100000000000000000000000000000000000000000000000000000000028152600401808373ffffffffffffffffffffffffffffffffffffffff1673ffffffffffffffffffffffffffffffffffffffff1681526020018273ffffffffffffffffffffffffffffffffffffffff1673ffffffffffffffffffffffffffffffffffffffff16815260200192505050602060405180830381600087803b158015611ad157600080fd5b505af1158015611ae5573d6000803e3d6000fd5b505050506040513d6020811015611afb57600080fd5b810190808051906020019092919050505010151515611b82576040517f08c379a00000000000000000000000000000000000000000000000000000000081526004018080602001828103825260188152602001807f4e6f7420656e6f75676820534e5420616c6c6f77616e6365000000000000000081525060200191505060405180910390fd5b6000809054906101000a900473ffffffffffffffffffffffffffffffffffffffff1673ffffffffffffffffffffffffffffffffffffffff166323b872dd8630866040518463ffffffff167c0100000000000000000000000000000000000000000000000000000000028152600401808473ffffffffffffffffffffffffffffffffffffffff1673ffffffffffffffffffffffffffffffffffffffff1681526020018373ffffffffffffffffffffffffffffffffffffffff1673ffffffffffffffffffffffffffffffffffffffff1681526020018281526020019350505050602060405180830381600087803b158015611c7a57600080fd5b505af1158015611c8e573d6000803e3d6000fd5b505050506040513d6020811015611ca457600080fd5b81019080805190602001909291905050501515611d29576040517f08c379a000000000000000000000000000000000000000000000000000000000815260040180806020018281038252600f8152602001807f5472616e73666572206661696c6564000000000000000000000000000000000081525060200191505060405180910390fd5b8281600201540181600201819055506003548160020154811515611d4957fe5b0460010381600301819055508060030154816002015402816004018190555080600301546001811515611d7857fe5b0481600401540a816005018190555080600501548160040154811515611d9a57fe5b0481600301548260060154020281600201540381600701819055507fd885bde6b3ff8b3f16c830fd1d4f882e20f6703e3c340f4377d323f806dda25384848360070154604051808460001916600019168152602001838152602001828152602001935050505060405180910390a15050505050565b600080600080602001840151925060248401519150604484015190509193909250565b600080600080600060648610158015611e4d57506101f48611155b1515611f0d576040517f08c379a00000000000000000000000000000000000000000000000000000000081526004018080602001828103825260448152602001807f596f75206d75737420656666656374207468652072616e6b696e67206279206d81526020017f6f7265207468616e20312c20616e64206c657373207468616e20352c2070657281526020017f63656e740000000000000000000000000000000000000000000000000000000081525060600191505060405180910390fd5b600560008860001916600019168152602001908152602001600020549450600485815481101515611f3a57fe5b906000526020600020906008020193508660001916846001015460001916141515611fcd576040517f08c379a000000000000000000000000000000000000000000000000000000000815260040180806020018281038252601b8152602001807f4572726f72206665746368696e6720636f72726563742064617461000000000081525060200191505060405180910390fd5b611fd78787610a87565b925092509250806000809054906101000a900473ffffffffffffffffffffffffffffffffffffffff1673ffffffffffffffffffffffffffffffffffffffff1663dd62ed3e8a8760000160009054906101000a900473ffffffffffffffffffffffffffffffffffffffff166040518363ffffffff167c0100000000000000000000000000000000000000000000000000000000028152600401808373ffffffffffffffffffffffffffffffffffffffff1673ffffffffffffffffffffffffffffffffffffffff1681526020018273ffffffffffffffffffffffffffffffffffffffff1673ffffffffffffffffffffffffffffffffffffffff16815260200192505050602060405180830381600087803b1580156120f257600080fd5b505af1158015612106573d6000803e3d6000fd5b505050506040513d602081101561211c57600080fd5b8101908080519060200190929190505050101515156121a3576040517f08c379a00000000000000000000000000000000000000000000000000000000081526004018080602001828103825260188152602001807f4e6f7420656e6f75676820534e5420616c6c6f77616e6365000000000000000081525060200191505060405180910390fd5b6000809054906101000a900473ffffffffffffffffffffffffffffffffffffffff1673ffffffffffffffffffffffffffffffffffffffff166323b872dd898660000160009054906101000a900473ffffffffffffffffffffffffffffffffffffffff16846040518463ffffffff167c0100000000000000000000000000000000000000000000000000000000028152600401808473ffffffffffffffffffffffffffffffffffffffff1673ffffffffffffffffffffffffffffffffffffffff1681526020018373ffffffffffffffffffffffffffffffffffffffff1673ffffffffffffffffffffffffffffffffffffffff1681526020018281526020019350505050602060405180830381600087803b1580156122bf57600080fd5b505af11580156122d3573d6000803e3d6000fd5b505050506040513d60208110156122e957600080fd5b8101908080519060200190929190505050151561236e576040517f08c379a000000000000000000000000000000000000000000000000000000000815260040180806020018281038252600f8152602001807f5472616e73666572206661696c6564000000000000000000000000000000000081525060200191505060405180910390fd5b8084600401540384600401819055508184600601540184600601819055508284600701540384600701819055507f7317e1f19d58cb9dc46ec12bed09a9d91b6835f22169746db426defba4e6290287828660070154604051808460001916600019168152602001838152602001828152602001935050505060405180910390a15050505050505050565b61010060405190810160405280600073ffffffffffffffffffffffffffffffffffffffff168152602001600080191681526020016000815260200160008152602001600081526020016000815260200160008152602001600081525090565b815481835581811115612484576008028160080283600052602060002091820191016124839190612489565b5b505050565b61250491905b8082111561250057600080820160006101000a81549073ffffffffffffffffffffffffffffffffffffffff021916905560018201600090556002820160009055600382016000905560048201600090556005820160009055600682016000905560078201600090555060080161248f565b5090565b905600a165627a7a723058200918867d65531ed03f96436fcd6ef6fb4425478a071ebf89e31cdf558d245d490029",
  "source": "pragma solidity >=0.4.22 <0.6.0;\n\nimport \"./token/MiniMeTokenInterface.sol\";\nimport \"./token/ApproveAndCallFallBack.sol\";\n\n\ncontract DAppStore is ApproveAndCallFallBack {\n    \n    // Could be any EIP20/MiniMe token\n    MiniMeTokenInterface SNT;\n\n    \n    // Total SNT in circulation\n    uint total;\n    /* \n        According to calculations here: https://beta.observablehq.com/@andytudhope/dapp-store-snt-curation-mechanism\n        interesting choices for the ceiling are around 0.4, but this requires more research/modelling.\n        \n        Alternative to a static ceiling: create an `owner` of this contract, set it to a multisig, give that owner multisig\n        permission to alter the ceiling and promise to do so based on the results of voting in https://vote.status.im\n    */\n    uint ceiling;\n\n    // The max amount of tokens it is possible to stake, as a percentage of the total in circulation\n    uint max;\n    \n    // Whether we need more than an id param to identify arbitrary data must still be discussed.\n    struct Data {\n        address developer;\n        bytes32 id;\n        uint balance;\n        uint rate;\n        uint available;\n        uint v_minted;\n        uint v_cast;\n        uint e_balance;\n    }\n    \n    Data[] public dapps;\n    mapping(bytes32 => uint) public id2index;\n    \n    event DAppCreated(bytes32 id, uint amount);\n    event Upvote(bytes32 id, uint amount, uint newEffectiveBalance);\n    event Downvote(bytes32 id, uint cost, uint newEffectiveBalance);\n    event Withdraw(bytes32 id, uint amount, uint newEffectiveBalance);\n    \n    constructor(MiniMeTokenInterface _SNT) public {\n        SNT = _SNT;\n        \n        total = 3470483788;\n\n        ceiling = 40;   // 2 dec fixed pos,  ie: 4 == 0.04,  400 == 4,\n        \n        max = (total * ceiling) / 10000; // No floating point, but underflow is OK here\n    }\n    \n    /**\n     * @dev Anyone can create a DApp (i.e an arb piece of data this contract happens to care about).\n     * @param _id bytes32 unique identifier.\n     * @param _amount of tokens to stake on initial ranking.\n     */\n    function createDApp(bytes32 _id, uint _amount) public { \n        _createDApp(msg.sender, _id, _amount);\n    }\n    \n    function _createDApp(address _from, bytes32 _id, uint _amount) internal {\n        require(_amount > 0, \"You must spend some SNT to submit a ranking in order to avoid spam\");\n        require (_amount < max, \"You cannot stake more SNT than the ceiling dictates\");\n        require(SNT.allowance(_from, address(this)) >= _amount, \"Not enough SNT allowance\");\n        require(SNT.transferFrom(_from, address(this), _amount), \"Transfer failed\");\n        \n        uint dappIdx = dapps.length;\n        \n        dapps.length++;\n\n        Data storage d = dapps[dappIdx];\n        d.developer = msg.sender;\n        d.id = _id;\n        d.balance = _amount;\n        d.rate = 1 - (d.balance/max);\n        d.available = d.balance * d.rate;\n        d.v_minted = d.available ** (1/d.rate);\n        d.v_cast = 0;\n        d.e_balance = d.balance - ((d.v_cast*d.rate)*(d.available/d.v_minted));\n\n        id2index[_id] = dappIdx;\n\n        emit DAppCreated(_id, d.e_balance);\n    }\n    \n    /**\n     * @dev Used in UI to display effect on ranking of user's donation\n     * @param _id bytes32 unique identifier.\n     * @param _amount of tokens to stake/\"donate\" to this DApp's ranking.\n     * @return effect of donation on DApp's e_balance \n     */\n    function upvoteEffect(bytes32 _id, uint _amount) public view returns(uint effect) { \n        uint dappIdx = id2index[_id];\n        Data memory d = dapps[dappIdx];\n        require(d.id == _id, \"Error fetching correct data\");\n        \n        uint mBalance = d.balance + _amount;\n        uint mRate = 1 - (mBalance/max);\n        uint mAvailable = mBalance * mRate;\n        uint mVMinted = mAvailable ** (1/mRate);\n        uint mEBalance = mBalance - ((mVMinted*mRate)*(mAvailable/mVMinted));\n        \n        return (mEBalance - d.e_balance);\n    }\n    \n    /**\n     * @dev Sends SNT directly to the contract, not the developer. This gets added to the DApp's balance, no curve required.\n     * @param _id bytes32 unique identifier.\n     * @param _amount of tokens to stake on DApp's ranking. Used for upvoting + staking more.\n     */\n    function upvote(bytes32 _id, uint _amount) public { \n        _upvote(msg.sender, _id, _amount);\n    }\n    \n    function _upvote(address _from, bytes32 _id, uint _amount) internal { \n        require(_amount > 0, \"You must send some SNT in order to upvote\");\n        \n        uint dappIdx = id2index[_id];\n        Data storage d = dapps[dappIdx];\n        require(d.id == _id, \"Error fetching correct data\");\n        \n        require(d.balance + _amount < max, \"You cannot stake more SNT than the ceiling dictates\");\n        require(SNT.allowance(_from, address(this)) >= _amount, \"Not enough SNT allowance\");\n        require(SNT.transferFrom(_from, address(this), _amount), \"Transfer failed\");\n        \n        d.balance = d.balance + _amount;\n        d.rate = 1 - (d.balance/max);\n        d.available = d.balance * d.rate;\n        d.v_minted = d.available ** (1/d.rate);\n        d.e_balance = d.balance - ((d.v_cast*d.rate)*(d.available/d.v_minted));\n        \n        emit Upvote(_id, _amount, d.e_balance);\n    }\n\n    /**\n     * @dev Used in the UI along with a slider to let the user pick their desired % effect on the DApp's ranking.\n     * @param _id bytes32 unique identifier.\n     * @param _percent_down the % of SNT staked on the DApp user would like \"remove\" from the rank. 2 decimals fixed pos, i.e.: 3.45% == 345\n     * @return cost\n     */\n    function downvoteCost(bytes32 _id, uint _percent_down) public view returns(uint b, uint v_r, uint c) { \n        uint dappIdx = id2index[_id];\n        Data memory d = dapps[dappIdx];\n        require(d.id == _id, \"Error fetching correct data\");\n        \n        uint balance_down_by = (_percent_down * d.e_balance / 100);\n        uint votes_required = (balance_down_by * d.v_minted * d.rate) / d.available;\n        uint cost = (d.available / (d.v_minted - (d.v_cast + votes_required))) * (votes_required / _percent_down / 10000);\n        return (balance_down_by, votes_required, cost);\n    }\n    \n    /**\n     * @dev Sends SNT directly to the developer and lowers the DApp's effective balance in the Store.\n     * @param _id bytes32 unique identifier.\n     * @param _percent_down the % of SNT staked on the DApp user would like \"remove\" from the rank.\n     */\n    function downvote(bytes32 _id, uint _percent_down) public { \n        _downvote(msg.sender, _id, _percent_down);\n    }\n    \n    function _downvote(address _from, bytes32 _id, uint _percent_down) internal { \n        require(_percent_down >= 100 && _percent_down <= 500, \"You must effect the ranking by more than 1, and less than 5, percent\");\n         \n        uint dappIdx = id2index[_id];\n        Data storage d = dapps[dappIdx];\n        require(d.id == _id, \"Error fetching correct data\");\n        \n        (uint b, uint v_r, uint c) = downvoteCost(_id, _percent_down);\n\n        require(SNT.allowance(_from, d.developer) >= c, \"Not enough SNT allowance\");\n        require(SNT.transferFrom(_from, d.developer, c), \"Transfer failed\");\n        \n        d.available = d.available - c;\n        d.v_cast = d.v_cast + v_r;\n        d.e_balance = d.e_balance - b;\n        \n        emit Downvote(_id, c, d.e_balance);\n    }\n    \n    /**\n     * @dev Developers can withdraw an amount not more than what was available of the\n        SNT they originally staked minus what they have already received back in downvotes.\n     * @param _id bytes32 unique identifier.\n     * @param _amount of tokens to withdraw from DApp's overall balance.\n     */\n    function withdraw(bytes32 _id, uint _amount) public { \n        uint dappIdx = id2index[_id];\n        Data storage d = dapps[dappIdx];\n        require(d.id == _id, \"Error fetching correct data\");\n        \n        require(msg.sender == d.developer, \"Only the developer can withdraw SNT staked on this data\");\n        require(_amount <= d.available, \"You can only withdraw a percentage of the SNT staked, less what you have already received\");\n        \n        d.balance = d.balance - _amount;\n        d.rate = 1 - (d.balance/max);\n        d.available = d.balance * d.rate;\n        d.v_minted = d.available ** (1/d.rate);\n        if (d.v_cast > d.v_minted) {\n            d.v_cast = d.v_minted;\n        }\n        d.e_balance = d.balance - ((d.v_cast*d.rate)*(d.available/d.v_minted));\n        \n        SNT.transferFrom(address(this), d.developer, _amount);\n        \n        emit Withdraw(_id, _amount, d.e_balance);\n    }\n    \n    /**\n     * @notice Support for \"approveAndCall\".  \n     * @param _from Who approved.\n     * @param _amount Amount being approved, needs to be equal `_amount` or `cost`.\n     * @param _token Token being approved, needs to be `SNT`.\n     * @param _data Abi encoded data with selector of `register(bytes32,address,bytes32,bytes32)`.\n     */\n    function receiveApproval(\n        address _from,\n        uint256 _amount,\n        address _token,\n        bytes _data\n    ) \n        public\n    {\n        require(_token == address(SNT), \"Wrong token\");\n        require(_token == address(msg.sender), \"Wrong account\");\n        require(_data.length <= 132, \"Incorrect data\");\n        \n        bytes4 sig;\n        bytes32 id;\n        uint256 amount;\n\n        (sig, id, amount) = abiDecodeRegister(_data);\n        \n        require(_amount == amount, \"Wrong amount\");\n\n        if(sig == bytes4(0x1a214f43)) {\n            _createDApp(_from, id, amount);\n        } else if(sig == bytes4(0xac769090)) {\n            _downvote(_from, id, amount);\n        } else if(sig == bytes4(0x2b3df690)) {\n            _upvote(_from, id, amount);\n        } else {\n            revert(\"Wrong method selector\");\n        }\n    }\n    \n    \n    \n    /**\n     * @dev Decodes abi encoded data with selector for \"functionName(bytes32,uint256)\".\n     * @param _data Abi encoded data.\n     * @return Decoded registry call.\n     */\n    function abiDecodeRegister(\n        bytes _data\n    ) \n        private \n        pure \n        returns(\n            bytes4 sig,\n            bytes32 id,\n            uint256 amount\n        )\n    {\n        assembly {\n            sig := mload(add(_data, add(0x20, 0)))\n            id := mload(add(_data, 36))\n            amount := mload(add(_data, 68))\n        }\n    }\n\n}",
  "sourcePath": "/Users/billy/sol/Recollections/contracts/DAppStore.sol",
  "compiler": {
    "name": "solc",
    "version": "0.4.24+commit.e67f0147.Emscripten.clang"
  },
  "schemaVersion": "2.0.1",
  "updatedAt": "2019-03-02T15:11:43.033Z"
}